:0401F40001020408F8
:1001BF00E4FDFCC3ED9FEC9E5015E4FBFA0BBB0076
:0F01CF00010AEB64644A70F50DBD00010C80E479
:0101DE0022FE
:10011F0078097C007D007BFF7A0179F47E007F04F3
:10012F001200D3E4FF74092FF8E66280858008E59A
:10013F0080C394F040F9E508C394F040077580FF41
:10014F000FBF04E17580FFE5081200F901BC7701CC
:10015F00B97B01B67D01B37E01B0B701ADBB01AA7A
:10016F00BD01A7BE01A4D701A1DB019EDD019BDE6E
:10017F000198E70195EB0192ED018FEE000001323E
:10018F007F31227F32227F33227F41227F34227FB1
:10019F0035227F36227F42227F37227F38227F39D6
:0F01AF00227F43227F2A227F30227F23227F4418
:0101BE00221E
:0901EB00E4FF12011F8F9080F95E
:030000000201DF1B
:0C01DF00787FE4F6D8FD75810C0201EB7E
:10000300E709F608DFFA8046E709F208DFFA803EDF
:1000130088828C83E709F0A3DFFA8032E309F608CC
:10002300DFFA8078E309F208DFFA807088828C8334
:10003300E309F0A3DFFA806489828A83E0A3F608E8
:10004300DFFA805889828A83E0A3F208DFFA804CC2
:1000530080D280FA80C680D4806980F28033801099
:1000630080A680EA809A80A880DA80E280CA803302
:1000730089828A83ECFAE493A3C8C582C8CCC5837A
:10008300CCF0A3C8C582C8CCC583CCDFE9DEE7804A
:100093000D89828A83E493A3F608DFF9ECFAA9F0C9
:1000A300EDFB2289828A83ECFAE0A3C8C582C8CC1F
:1000B300C583CCF0A3C8C582C8CCC583CCDFEADE38
:1000C300E880DB89828A83E493A3F208DFF980CC9A
:1000D30088F0EF60010E4E60C388F0ED2402B40493
:1000E3000050B9F582EB2402B4040050AF2323453A
:0600F3008223900053730C
:1000F900D083D082F8E4937012740193700DA3A396
:1001090093F8740193F5828883E4737402936860A9
:06011900EFA3A3A380DFA9
:00000001FF
